:020000008E2B45
:10000800FF00030E8301B7000A08B6008A017008D2
:10001800A1000B1D4228E73081008030F0008030BD
:1000280025067002031D1A282408003C03182028FE
:100038000130A402031CA503A20A0319A30A8030F5
:100048002306F00080302F067002031D2D282E088D
:1000580022020318312808143328FE30880580301E
:100068002306F00080307002031D3C28C8302202AD
:10007800031C4028A201A301FB308B052108F000D6
:0E00880036088A00370E8300FF0E7F0E090037
:10009600710DF80DF90D7408F8027508031C750F3B
:1000A600F902F00DF10D0F30FC00710DF80DF90D90
:1000B6007408701C6428F8027508031C750FF90291
:1000C6006928F80775080318750FF907F00DF10D83
:1000D600FC0B5828701875287408F807750803185B
:0800E600750FF9070000080086
:0E00EE00F201F101F001F801F3010030080009
:1000FC007B15FB1F88280130F300F201F101F001A0
:08010C00FA0DF20CFF300800AF
:08011400FA1FF213003008008D
:06011C00FB15FF30080096
:10012200FB14FB1F9B28FF30F300F200F100F000EC
:08013200FA0DF20CFF30080089
:10013A00831203137408003A031DAC287508003AA9
:10014A00031DAC28FF30F0007F30F100052983122F
:10015A000313FD01F901F801710870040319003451
:10016A0071087506FA00FA1BFD09FB01F51FC22882
:10017A00F409F509F40A0319F50AF11FC928F00967
:10018A00F109F00A0319F10A71087504FA00FA1B59
:10019A00DE284B207B18F128FD1F0034F009F109F5
:1001AA00F00A0319F10AF809F909F80A0319F90A10
:1001BA000034F51FED28F11BE9287108F9007008D1
:1001CA00F800F101F001D128F101F001F00A003440
:1001DA00F109F009FB0ACE28F80A0319F90A74088A
:1001EA007802031DD12875087902031DD128F90167
:1001FA00F801F00A0319F10AF11FD1280000FF34AF
:02020A000800EA
:10020C007B14FB1F1129F201FA1FFF30F200F100E1
:0A021C00F000FA0DF20CFF300800AC
:10022600A0017208031D28297108F2007008F10068
:10023600F001A0157208031D28297108F200F101CA
:10024600A01120167208031936292008F302031D8F
:10025600031C3A290310F21B3E29F00DF10DF20D95
:10026600F30B2E293A290130FC0077204129023070
:0E027600FC007E2041290430FC008A20080094
:1002840083120313FB01730803197F297208FA0010
:10029400F2178E30F302F31F8229F309F30A0830B0
:1002A4007302031C6529F300F10D7208F100F201D9
:1002B40008307302031C6529F300F10DF101730882
:1002C400031D03106D29730803196D290310F20C23
:1002D400F10CF30B68297B1B711C7729031C77290C
:1002E400F10A0319F20AF21B8E29FA1F9129F20965
:1002F400F109F10A0319F20A9129F201F101912994
:100304007B14FB1F9429F201FA1F9429FF30F20099
:10031400F100FA0DF20C94290130FC00962900300A
:10032400FC009629FF30FC00FC0803199A290621D9
:0A0334007108F0007208F1000800E3
:10033E00831203137408003A031DBA297508003A94
:10034E00031DBA297608003A031DBA297708003A28
:10035E00031DBA29FF30F000FF30F1007F30F200AC
:10036E00FF30F300552A8312031377080319492A25
:10037E00730803194C2A720876068039FA00F217B0
:10038E00F617A0017208F8007108FC007008FD0055
:10039E007408FD027508031C750FFC027608031C19
:1003AE00760FF802F801FC01FD01031CE52903108C
:1003BE00F20CF10CF00CF80C0130A0007708F302EF
:1003CE00031CEF297E302007F30703184F2AF42968
:1003DE007E302007F307031C522A1830FA07FD0D52
:1003EE00FC0DF80DF00DF10DF20DA00D7408F002DC
:1003FE007508031C750FF1027608031C760FF202C6
:10040E00760DA004201C0D2A7D14182A7408F007FE
:10041E0075080318750FF10776080318760AF207A8
:10042E007D10FA031F307A05031DF6297B1B7D1CF8
:10043E003F2A0310F00DF10DF20DA00D7408F0021D
:10044E007508031C750FF1027608031C760FF20275
:10045E00760D20040139FD070318FC0A0319F80A6A
:10046E00031D3F2AF80CFC0CFD0CF30A03194F2A4E
:10047E00FA1FF8137808F2007C08F1007D08F000EE
:10048E000030542A01308E20542A02307720542A0C
:0E049E0004309120542A08307E20000008000F
:1004AC00831203137008F8007108F000F101F201D7
:1004BC00F301FB01FC019630F300FA01F01F6C2AEA
:1004CC00F809F009F80A0319F00AFA177008F10094
:0C04DC007808F000F801F201132108007C
:1004E80083120313FB01FA01F9018030F800F10CC3
:1004F800F00C031C882A7408F90775080318750F8F
:10050800FA070318FB0A0310F01F902A7408FA0769
:1005180075080318750FFB07FB0CFA0CF90CF80C9F
:10052800031C7B2A7B08F3007A08F2007908F100A3
:060538007808F000080045
:0E053E008312031331088A003008820008007F
:10054C00643083120313F4000030F5003A08F00015
:10055C003B08F1009D207008A4007108A5008030B4
:10056C00F000803025067002031DBE2A2408003CD2
:08057C000318C12AB52A08008A
:10058400831203138F018E0107160A30BA0000305C
:10059400BB00A622EF308705871AD12ACE2A101471
:1005A400871ED52AD22AFE3090050F08F100F001EB
:1005B4000E08F0040030F1045622AE30F400473047
:1005C400F5006B30F6008430F7009F2142210800CB
:1005D400AF30831203130605F000A03070048600C8
:0205E40008000D
:1005E6009F30831203130605F000903070048600D6
:0205F6000800FB
:0A05F8008312031338089500080071
:0A0602008312031338089B00080060
:0A060C000F30831203138605080067
:100616005F30831203130605F00050307004860025
:020626000800CA
:10062800831203131F151F1D1A2B172B1E08F10009
:0E063800F00183161E08F0040030F1040800E3
:10064600831203133808F0003908F1000A30F40069
:100656000030F50074227008A4007108A5008030EF
:10066600F000803025067002031D3B2B2408003C59
:0806760003183E2B322B080093
:10067E009F228A110A128000840AB00A0319B10A55
:08068E00F003031D3F2B0800DF
:100696004130831203139F00CE3083169F0008005B
:1006A6006F30831203130605F00060307004860075
:0206B60008003A
:1006B800803083120313F000803039067002031D66
:1006C800672B3808B43C03186C2BB430B800B90158
:1006D8003808F0003908F1000A30F4000030F5005D
:1006E8007422B430F400F5019D2070080A3EAE0073
:0C06F80000300318013E7107AF0008003D
:1007040007308312031392000C3097000C309D00C5
:08071400FA3083169200080080
:10071C0083120313A201A301A401A501A601A70141
:10072C00A801A9010130AA00AB01AC01AD010F3049
:10073C00AE00AF01013083168500083086002030F2
:10074C008700F430880083128501860187018801B7
:10075C00023083168100A0308B00E73083128100B9
:10076C00103090004B2382238312B801B9015C2313
:10077C000130AA000030AB00A801A901A601A70115
:10078C00AC01AD01B830B8000B30B900232306140E
:10079C0000302B06031DD42B01302A06031D5D2CC3
:1007AC00142370088312B4007108B50080307106F0
:1007BC00F2008030023A7202031DE62BEE3070021A
:1007CC000318EE2B88140130A8000030A900FC2B74
:1007DC00FD30880500302906031DF62B0130280654
:1007EC00031DFC2B0230AA000030AB00881A0C2C25
:1007FC00081A0C2C0B234B30B8000030B900FC222B
:10080C004B30B8000030B90001235C2C881A1A2C2C
:10081C00081E1A2C0B23B801B901FC224B30B8006E
:10082C000030B90001235C2C881E282C081A282CB7
:10083C000B234B30B8000030B900FC22B801B901D1
:10084C0001235C2C881E5C2C081E5C2C0623E830D3
:10085C00B8000330B90023230B234B30B800003011
:10086C00B900FC224B30B8000030B90001232C3009
:10087C00B8000130B90023230623E830B800033058
:10088C00B9002323F3224B30B8000030B900FC220E
:10089C004B30B8000030B9000123081A562C532CE9
:1008AC000623E830B8000330B9002323162E00309D
:1008BC002706031D632C00302606031D9C2C0623E3
:1008CC00E830B8000330B90023230B234630B800BE
:1008DC000030B900FC224630B8000030B9000123CA
:1008EC009030B8000130B90023230623E830B8005B
:1008FC000330B900232353234630B8000030B9002D
:10090C00FC224630B8000030B90001232C30B8006E
:10091C000130B90023230623E830B8000330B900B6
:10092C0023230130A6000030A700162E00302D0620
:10093C00031DA22C00302C06031DA52D881AA92CF2
:10094C00081AA92CAE2C0130AC000030AD00B02C34
:10095C00AC01AD01C2227008B2007108B300803046
:10096C007106F20080307202031DBE2C1930700229
:10097C000318E12C871FE12C071FE12C0623E8301C
:10098C00B8000330B900232353234630B80000309D
:10099C00B900FC224630B8000030B90001232C30DD
:1009AC00B8000130B90023230623E830B800033027
:1009BC00B9002323A42D80303306F0008030700260
:1009CC00031DEA2C143032020318222D871F222D0E
:1009DC00071B222D0623E830B8000330B90023236F
:1009EC00EA225030B8000030B900FC225030B80078
:1009FC000030B9000123FA30B800B90123230623D3
:100A0C00E830B8000330B9002323F3225030B8008B
:100A1C000030B900FC225030B8000030B90001237E
:100A2C006430B8000030B90023230623E830B80046
:100A3C000330B9002323A42D80303306F00080301E
:100A4C007002031D2B2D143032020318632D871BEB
:100A5C00632D071F632D0623F430B8000130B90055
:100A6C002323EA225030B8000030B900FC22503069
:100A7C00B8000030B9000123C830B800B9012323F5
:100A8C000623F430B8000130B9002323532350302F
:100A9C00B8000030B900FC225030B8000030B9006A
:100AAC0001236430B8000030B90023230623E8305A
:100ABC00B8000330B9002323A42D80303306F00096
:100ACC0080307002031D6C2D14303202031C7E2DFD
:100ADC00871F7E2D071B7E2D0B234630B800003060
:100AEC00B900FC225030B8000030B9000123A42D0D
:100AFC0080303306F00080307002031D872D1430D7
:100B0C003202031C992D871B992D071F992D0B233E
:100B1C005030B8000030B900FC224630B80000302C
:100B2C00B9000123A42D0B234630B8000030B900C6
:100B3C00FC224630B8000030B9000123162E881A6A
:100B4C00B52D081AB52D0B233C30B8000030B90078
:100B5C00FC223C30B8000030B9000123162E881A54
:100B6C00C32D081EC32D0B23B801B901FC223C3048
:100B7C00B8000030B9000123162E881ED12D081A9A
:100B8C00D12D0B233C30B8000030B900FC22B80149
:100B9C00B9010123162E881E162E081E162E0623AA
:100BAC00E830B8000330B90023230B235030B800D1
:100BBC000030B900FC225030B8000030B9000123DD
:100BCC005E30B8000130B900232306230623E83039
:100BDC00B8000330B900232353235030B800003041
:100BEC00B900FC225030B8000030B90001232C3081
:100BFC00B8000130B90023230623E830B8000330D5
:100C0C00B90023235A30B8000030B9005C23E83017
:100C1C00B8000330B90023230623FE308605122EBC
:040C2C00CE2B172E86
:02400E004A2F37
:00000001FF
